:020000040000fa
:100000000200de021003000000000002100b0000de
:10001000000000021013000000000002101b00008e
:10002000000000021023000000000002102b00005e
:10003000000000021033000000000002103b00002e
:10004000000000021043000000000002104b0000fe
:10005000000000021053000000000002105b0000ce
:10006000000000021063000000000002106b00009e
:10007000000000021073000000000002107b00006e
:10008000000000021083000000000002108b00003e
:10009000000000020d281200f0b900030200d8e4ad
:1000a00090000278a579018002f0a3d8fcd9fa90db
:1000b00000a6aa82ab839000f6780979018015e446
:1000c00093a3ac82ad838a828b83f0a3aa82ab8395
:1000d0008c828d83d8e9d9e7120306120d4775d0bb
:1000e0000075813f75188075931e5392fe0200962d
:1000f00079015392fe220010000000000200bb01b3
:1001000002e722c0925392fec082c08389828a8312
:10011000bb0003e08002e493d083d082d09222bb64
:100120000015c0925392fec082c0838a838982f0f8
:10013000d083d082d09222bb0101f722cac0e0e670
:10014000f30908dafad0e0fa22cac0e0e0f208a324
:10015000dafad0e0fa22600c08c6c313c618c61338
:10016000c6d5e0f422700422600d18c6c333c60859
:10017000c633c6d5e0f41822e4735392fed083d080
:10018000822518f8c518c39824fbcef208e520f2a2
:1001900008e9c0e07908e709f208defad0e0f9eff3
:1001a000f208d0e0fed0e0f208eef208e473a818fe
:1001b000e2fe08e208f520e9c0e07908e208f70964
:1001c000dffae208ffd0e0f9e208c0e0e208c0e0b0
:1001d00088185392fe22e584f208e585f222e208af
:1001e000f584e2f585227403800474028000c9c09e
:1001f000e0e518c399f518c912013cd0e0f9227462
:10020000038000c8c0e0e518c398f518c81201497a
:10021000d0e0f8227400f5d374022408f5d253928a
:10022000fe22a2afe433f8c2af5392fe906270e0b8
:10023000a2e740f5e9c333906272f0906270e0d2b9
:10024000e0f0e0a2e740fbe8a2e092af2274fa12ed
:10025000017aa2af33f8c2afed900002f0eca3f048
:10026000a37462f0a37473f0a3e4f0e9a3f0a374a1
:1002700012f0a37442f0eb906272f0ea906271f0b7
:100280007400f5d575d40275d601906270e0d2e1a4
:10029000f0e0a2e740fbe8a2e092af7f010201aeee
:1002a0005392fe906276e05470643070047803805c
:1002b000027807e5c7f988c790ff00e090001af0c0
:1002c00089c7a2e05004788080027800e8f5c6e58e
:1002d0009efce86c70f99062707408f02274fa1257
:1002e000017af9800c8a828b83e029f9a3aa82ab78
:1002f00083ecfeedffee24ff1cef34fffdee4f70ac
:10030000e47f010201ae5392fe900001e090001bd9
:10031000f0e5c7ff75c7007c007d707a007b901206
:1003200002dde924a5fe8fc77f01e5c7f5088fc769
:100330007c007d807a007b801202dde92efe85083c
:10034000c70fefc3940340e2ee7027e59d54186495
:1003500010700890001be0a2e040179000017403a9
:10036000f005929000a6e0f582a3e0f583059212d5
:1003700001781202a0900001e4f012021412061398
:100380001206431206a280fb74f812017a151815a2
:1003900018a8181201d690620ee0fee4f0906211e7
:1003a000e0ffa2e450197480f09000237407f0126b
:1003b00005856006120590120178900023e4f0efa5
:1003c000a2e2500b906211e4f0900023f0805c9068
:1003d0000023e0f8740268703e906216e0ff90001f
:1003e0003a1201ffeff97a207b6212064f051805d9
:1003f0001805188f0890003d12057a12059f120506
:10040000886004744080027448906211f0e849608a
:100410000302056702054a74066870061205901209
:100420000178900023e060030204f9efa2e04003aa
:10043000020567750832750900750a00780812010f
:10044000e679087a207b6212064f05180518051810
:1004500090003fe4f0a3f0900032e054e0600e24fe
:10046000e0606a24a0604024e06071807ea3e01414
:10047000602624fe601d24fe600a24fc601f24fe0a
:1004800060208067120a09900023e064047064749d
:10049000608062120a0380ef1209fd80ea120b3cb1
:1004a00080e5120c7480e0a3e0600e24fa600f2453
:1004b000fe601024fe6011803212083480c9120ad6
:1004c0004f80c4120b1280bf120c1680ba90003fee
:1004d00074caf0a37406f01206ca80ab90003f7491
:1004e00084f0a37407f0120784809c9000237404a6
:1004f000f0809c7440906211f0900023e0f8740149
:100500006870597f0290003de0f8a3e0f9c3e894d9
:1005100020e994005007e8f50a7f0a8003750a2055
:1005200090003a1201ffa90a7a207b6212066f0539
:100530001805180518850a0812059f12057aef900c
:100540006211f0e50ac39420501d12058560061261
:100550000590120178900023e4f0800b7405687018
:1005600006120590120178ee90620ef0a8181201a2
:10057000de051805187f030201aec3e09508f0a35d
:10058000e09400f02290003fe0f8a3e0f9e849226f
:10059000059290003fe0f582a3e0f583059222905a
:1005a000003ae0f9a3e0faa3e0fbe92508f9ea3410
:1005b00000fa90003ae9f0a3eaf0a3ebf0a322c01e
:1005c00008c0097800880874242508f5827400346e
:1005d00000f583e95392fef008e8c3940540e678fd
:1005e00000880874292508f58274003400f583e931
:1005f000f008e8c3940540e9d009d008225392fee0
:1006000090001c7402f0a3e4f0900023f079031230
:1006100005bf22c008c009750821750900780812b5
:1006200001ea7c007d007a417b00120d4b05180524
:100630001890001c7402f090620f04f0e0a2e750e2
:10064000fb80b553f4fed29043fe015392fe22ee9e
:10065000c0e012068a60115392fee012011fe924e5
:100660000109ea3400fad8efd0e0fe5392fe22ee00
:10067000c0e012068a60111200fe5392fef0e924d7
:100680000109ea3400fad8ef80de8a828b83e9f828
:10069000a918e3fc09e3fd09e3feecf9edfaeefb32
:1006a000e822eec0e05392fe906206e0f89062020b
:1006b000e0fe906204e0e8a2e250031205fdeea223
:1006c000e05003120388d0e0fe2274f712017a9002
:1006d0000033e0700302076d146003020779900095
:1006e0001b7401f0900023e0f87030900038e0f8bf
:1006f000a3e0f9e84970059000ac807490003a746a
:1007000062f0a37400f0a3e4f0a3e8f0a3e9f09092
:1007100000237402f09000ac048063740268705986
:10072000900034e02440f508a3e03400f509e50822
:10073000541f701285080a85090b7405780a120186
:1007400056a90a120222900038e0240354fcf97cd6
:10075000627d0074047808120165aa08ab091202d0
:100760004d900023e4f09000ac7405801190001bc4
:100770007402f0900023e480059000237404f07f5d
:10078000040201ae5392fe900033e06403701a90ad
:10079000003a74a8f0a37400f0a3e4f0a37406f088
:1007a000a3e4f09000230480059000237404f02259
:1007b0005392fe9000a2e4f0a3740ff02274fa1298
:1007c000017a15181518a8181201d6eafcebf87a68
:1007d000007b00088038e8604d05929000a2e0fda3
:1007e000a3e0f5838d82a3e493fdec6d6034e96da5
:1007f00070099000a2e0faa3e0fb189000a2e02e9e
:10080000fea3e03400ff9000a2eef0a3eff0900012
:10081000a2e0f584a3e0f585e4059293fe70b7e8c5
:1008200060047a007b00a8181201de051805187f05
:10083000010201aec008120c08600302090fa3e018
:10084000f8a3e0600302090fa3e064027002a3e0d2
:10085000600302090f900032e02480600914604fa9
:1008600014605c02090fe8600302090f90002fe09a
:1008700060047801800278009000a4e8f0a3e4f01e
:1008800090002ee0600a9000a4e04402f0a3e4f09f
:10089000900023e06404601490003a74a4f0a37400
:1008a00000f0a3e4f0a37402120c6bf0d0082290c5
:1008b000001ce0640470589000a4e4f0a380d0e829
:1008c000547ff50890001ce064047043e508c3946d
:1008d00006503c741c2508f58274003400f583e84a
:1008e00054806018a3a3a3a3a3a3a3e0640370048c
:1008f0007801800278009000a4e88090e582240cc2
:10090000f582e5833400f583e0640370e780e190cd
:1009100000237404809574f912017a15181518a82b
:10092000181201d6e9fa900038120c0e6003020981
:10093000e790001ce06404600b900036120c0e601f
:10094000030209e7900032e0541f60091460231489
:1009500060120209e7900034e064017015ea90002b
:100960002e0209ec900036e0547ff508900034e048
:10097000600479008079e508c39406506ae5089020
:10098000620ef0741c2508f58474003400f585901f
:100990000036e054806021ea6004741080027440e4
:1009a000906211f0ea600474038001e40592a3a34d
:1009b000a3a3a3a3a3f08026ea600474208002749a
:1009c00080906214f0ea600474038001e4c0e0e502
:1009d00084240cf582e5853400f583d0e0f0539251
:1009e000fe90620ee480059000237404f07901a863
:1009f000181201de051805187f020201ae790012f7
:100a00000916227901120916225392fe900036121d
:100a10000c0e7018a3120c0e7012900034e0f8a3a4
:100a2000e0f9e85480fae9fbea4b60079000237490
:100a300004801ae8906200f090001c6009e06402f3
:100a4000700c74038007e0640370037402f0227476
:100a5000f812017a1207b0900034e0faa3e0f9141a
:100a6000600814600d14603280387b007a007901d0
:100a70008034eafb7a0079021207bd120afde924ec
:100a800002f9ea3400fa89828a83e493f8740193c4
:100a9000f990003de8f0a3e9801ceafb7a007903b5
:100aa00080047b007a001207bd120afda37b80122e
:100ab00000fea3f0a3e4f090003ae0fca3e0fda365
:100ac000e0feec4d4e900023700474048029e06435
:100ad000046025900038e0faa3e0fb90003de0f8c8
:100ae000a3e0f9c3ea98eb99500890003deaf0a31f
:100af000ebf09000237401f07f030201ae90003a06
:100b0000eaf0a3ebf0a37480f090003ae0f9a3e0e0
:100b1000fa22120c087010a3120c0e700aa3e064e3
:100b2000017002a3e060079000237404800c900021
:100b30003a741df0a37400120c61f02274f81201d3
:100b40007a90001ce064027003020bef90003612f2
:100b50000c0e6003020befa3120c0e6003020befee
:100b6000900035e06003020bef1207b0900034e014
:100b70007003020bf77b007a0079021207bd8a0826
:100b80008b09ae08af09ee4f6065900034e0f88e37
:100b9000828f83a3a3a3a3a3e493c0e0e8fad0e0e9
:100ba0006a70d290001c7404f0e8a3f0750a008efd
:100bb000828f83a3a3a3a3e493f8e50ac3985045c7
:100bc000850a08741e2508f58274003400f583e454
:100bd000f07b007a0079041207bd8a828b83e5825c
:100be00045836007a3a3a3e49370e6050a80c09041
:100bf00000237404f0800e90001df090001c74031c
:100c0000f0f91205bf020af85392fe900034e0f8a2
:100c1000a3e0f9e8492274f812017a90001ce0641c
:100c2000047019900032e064817011120c0b700c8a
:100c3000900038e064017002a3e060079000237424
:100c400004801a900036e0241ef508a3e03400f575
:100c50000990003ae508f0a3e509120c61f0020ad8
:100c6000f8f0a3e4f0a304120c6b22f0a3e4f090dc
:100c70000023042274f912017a15181518a8181205
:100c800001d690001ce064046003020d1b9000324a
:100c9000e064016003020d1b900038120c0e707ba3
:100ca0001207b07b007a0079021207bd8a828b831b
:100cb000e5824583600fa3a3a3a3a3e493f8900068
:100cc0001de06870de7b007a0279041207bd8a821b
:100cd0008b83e582458360430592900034e0f8a35e
:100ce000e0f9900036e0faa3e0fb858284858385f5
:100cf000a3a3e493fcea6c7001eb600f0592a3a33d
:100d0000a3e493fce86c7001e970ba741e2af582c2
:100d100074003bf583e85392fe8005900023740431
:100d2000f00209ef5392fe2274fa12017a15181597
:100d300018eafeebffa818eef208eff2aa18ab9340
:100d40007901120d2480ee12009322ecf9a818e22a
:100d5000fc08e2fdec4d6017e9f88a828b83e853ca
:100d600092fef0a3ec24ff1ced34fffd4c70ef531a
:100d700092fe22ffffffffffffffffffffffffffce
:100d8000ffffffffffffffffffffffffffffffff73
:100d9000ffffffffffffffffffffffffffffffff63
:100da000ffffffffffffffffffffffffffffffff53
:100db000ffffffffffffffffffffffffffffffff43
:100dc000ffffffffffffffffffffffffffffffff33
:100dd000ffffffffffffffffffffffffffffffff23
:100de000ffffffffffffffffffffffffffffffff13
:100df000ffffffffffffffffffffffffffffffff03
:100e0000fffffffffffffffffffffffffffffffff2
:100e1000ffffffffffffffffffffffffffffffffe2
:100e2000ffffffffffffffffffffffffffffffffd2
:100e3000ffffffffffffffffffffffffffffffffc2
:100e4000ffffffffffffffffffffffffffffffffb2
:100e5000ffffffffffffffffffffffffffffffffa2
:100e6000ffffffffffffffffffffffffffffffff92
:100e7000ffffffffffffffffffffffffffffffff82
:100e8000ffffffffffffffffffffffffffffffff72
:100e9000ffffffffffffffffffffffffffffffff62
:100ea000ffffffffffffffffffffffffffffffff52
:100eb000ffffffffffffffffffffffffffffffff42
:100ec000ffffffffffffffffffffffffffffffff32
:100ed000ffffffffffffffffffffffffffffffff22
:100ee000ffffffffffffffffffffffffffffffff12
:100ef000ffffffffffffffffffffffffffffffff02
:100f000012010002000000205824feff0000010230
:100f1000030109021b0001010480250904000000ef
:100f2000fe01020409210d03e84000010104030948
:100f300004120342006c00750065006700690067d9
:100f400000610016034c006f007700200045006e22
:100f50000065007200670079000a03310032003337
:100f6000003400080344004600550000ffffffff67
:100f7000ffffffffffffffffffffffffffffffff81
:100f8000ffffffffffffffffffffffffffffffff71
:100f9000ffffffffffffffffffffffffffffffff61
:100fa000ffffffffffffffffffffffffffffffff51
:100fb000ffffffffffffffffffffffffffffffff41
:100fc000ffffffffffffffffffffffffffffffff31
:100fd000ffffffffffffffffffffffffffffffff21
:100fe000ffffffffffffffffffffffffffffffff11
:100ff000ffffffffffffffffffffffffffffffff01
:101000000210f702337fffffffffff02271fffffe2
:10101000ffffff0227beffffffffff022872ffff57
:10102000ffffff02295dffffffffff023bceffff37
:10103000ffffffffffffffffffffff022816ffff7d
:10104000ffffff02278dfffffffffffffffffffff7
:10105000ffffff023365ffffffffffffffffffff03
:10106000ffffffffffffffffffffff0226c0ffffa5
:10107000ffffff0228e5ffffffffff0226f1ffff52
:10108000ffffff0233837582f775837f74001211af
:1010900012121133b900030210e1e479347802b876
:1010a00000028004f709d8fce490030278b47906c2
:1010b0008002f0a3d8fcd9fa9008b5aa82ab83903d
:1010c000113978c779028015e493a3ac82ad838a85
:1010d000828b83f0a3aa82ab838c828d83d8e9d9db
:1010e000e775825c75837f740012111275827175c9
:1010f00083d6740212111275d00075813f753100cc
:10110000753202753303759f007593005392fe028a
:101110001091c09ff59fe473d09f225392fed0831d
:10112000d082c09fe493c0e0740193c0e074029346
:10113000f59f2279015392fe22d63ce03cea3cf432
:101140003cfe3c083d123d1c3d263d303d3a3d44b1
:101150003d4e3d583d623d6c3d763d803d8a3d941f
:101160003d9e3da83db23dbc3dc63dd03dda3de48f
:101170003dee3df83d023e0c3e163e203e2a3e34fa
:101180003e3e3e483e523e5c3e663e703e7a3e8467
:101190003e8e3e983ea23eac3eb63ec03eca3ed4d7
:1011a0003ede3ee83ef23efc3e063f103f1a3f2444
:1011b0003f2e3f383f423f4c3f563f603f6a3f74af
:1011c0003f7e3f883f923f9c3fa63fb03fba3fc41f
:1011d0003fce3fd83fe23fec3ff63f00400a40148d
:1011e000401e40284032403c40464050405a4064f7
:1011f0004000800000631569156f1575157b15811a
:1012000015eb1489166b16ef16d716dd16571b153e
:1012100018551d8d18e9168f161d16f516e514b410
:101220000301ffffff0000000080ffffffff010040
:1012300000000400000000000000c00000000300e7
:10124000000200008d1801020300000d1a00000fbb
:1012500000c3a88ee8b19dcf7f5eb98b9f41efb0f0
:1012600055f401fa00960064004b0032001e001491
:1012700000d6be898e00010602121315142941768c
:1012800071ffc1fbe84c90728be7b3518963ab23cc
:101290002302841872aa612f3b51a8e53749fbc984
:1012a000ca0c18532cfd45e300400000ffffffff70
:1012b000faffffff0000800062000000070000004e
:1012c0000500060007000000010001000001000108
:1012d00002020300020000000000020201000240be
:1012e000420f0019000000093d0000e5fffffffb71
:1012f000349b5f800000800010000000000000129e
:10130000111b01c20212111b17c20212111b9fc234
:101310000212111b30c30212111bc9d50112111b7d
:10132000f9d50112111b08d60112111bf9d60112b1
:10133000111b11d70112111b20d70112111b36d717
:101340000112111b42d70112111b84d70112111b6c
:10135000b1d70112111b03d80112111b31d8011290
:10136000111b8ed80112111baad80112111be6d82d
:101370000112111bfed80112111b91d90112111b70
:1013800007da0112111b6cda0112111ba5da011226
:10139000111bf7da0112111b32db0112111b5ddb8d
:1013a0000112111bb8db0112111bfcdb0112111b16
:1013b00023dc0112111b73dc0112111bcedc0112a4
:1013c000111bd1dc0112111b2fdd0112111b66dd77
:1013d0000112111b9edd0112111bd6dd0112111b22
:1013e0000dde0112111b37de0112111b40de01124e
:1013f000111b5dde0112111b88de0112111bc5deff
:101400000112111b05df0112111b32df0112111b2a
:101410007edf0112111bb7df0112111b45e0011223
:10142000111bf5e00112111b44e10112111ba4e193
:101430000112111bafe10112111bdce10112111ba2
:10144000e7e10112111b86e20112111b12e30112e6
:10145000111b60e30112111b78e30112111b96e3cb
:101460000112111bb8e30112111bd9e30112111b68
:10147000f5e30112111b6be40112111bb0e4011220
:10148000111b2be50112111b41e50112111bbde5da
:101490000112111bf3e50112111b02e60112111bcf
:1014a0004ae60112111b59e60112111b71e60112e5
:1014b000111b9ae60112111bcae60112111bf7e675
:1014c0000112111b0ae70112111b42e70112111b45
:1014d000aae70112111bdbe70112111b08e8011238
:1014e000111b14e80112111b1ae80112111b43e829
:1014f0000112111bb9ea0112111b3eeb0112111b63
:10150000a7eb0112111bdfeb0112111b24ec0112de
:10151000111b68ec0112111bacec0112111b2bed1d
:101520000112111b7fed0112111bd9ed0112111bcc
:1015300055ee0112111b9aee0112111b4cef011214
:10154000111b10f00112111b06f10112111b09f100
:101550000112111b1ef10112111b33f10112111b9b
:101560004cce0212111b9ace0212111bb0ce0212e7
:10157000111bc6ce0212111bdcce0212111bfdceb6
:101580000212111b13cf0212111b29cf0212111bc1
:1015900048a80212111b8fa80212111bd2a8021216
:1015a000111bf0a80212111b68a90212111bd9a964
:1015b0000212111b11aa0212111b6faa0212111b97
:1015c0008aaa0212111bb7aa0212111b15ab021232
:1015d000111b2cab0212111b4eab0212111b79ab6b
:1015e0000212111baeab0212111bdaab0212111b5d
:1015f00013ac0212111b3aac0212111b6dac021299
:10160000111b7cac0212111b85ac0212111bfbac2e
:101610000212111b23ae0212111ba8bd0212111bd4
:1016200082be0212111b65bf0212111bf9bf02120a
:10163000111b5cc00212111ba9c00212111bf1c0c8
:101640000212111bbfc10212111bd6c10212111bc3
:10165000edc10212111b7c7e0012111ba97e00122b
:10166000111b00800212111b608c0212111b2c8ea8
:101670000212111b9bca0212111b03cb0212111b77
:1016800027cb0212111b76cb0212111bcbcb0212fd
:10169000111b72cc0212111b8bcc0212111bdc9895
:1016a0000212111bf9980212111b149a0212111b3b
:1016b000759a0212111b209b0212111b9f9c021291
:1016c000111b279d0212111b6e9d0212111bd79d2b
:1016d0000212111b359e0212111b8a9e0212111b4f
:1016e000059f0212111b969f0212111b1fa00212ce
:1016f000111b63d60212111b67d60212111b69d689
:101700000212111b6fd60212111bb0a00212111b84
:10171000c8a00212111bf3a00212111b40a1021259
:10172000111b59a10212111b8ba10212111bc9a17d
:101730000212111bfba10212111b70a20212111b3b
:1017400095a20212111beba20212111b6ca702122e
:10175000111b20a80212111baed20212111bc6d2fd
:101760000212111b37d30212111b7ad30212111b62
:1017700001b90212111b5ab90212111bc2b902128d
:10178000111bdab90212111b04ba0212111b1eba84
:101790000212111b52ba0212111ba8ba0212111b1b
:1017a000e3ba0212111b93bb0212111bb7bb021248
:1017b000111b3fbc0212111b6abc0212111bacbcf4
:1017c0000212111bd1bc0212111be5bc0212111b2b
:1017d000fabc0212111ba2bd0212111bbab30212f3
:1017e000111bc8b30212111bf9b30212111b22b450
:1017f0000212111b30b40212111b77b40212111b1a
:1018000036b50212111babb50212111b08b602123b
:10181000111b34b60212111badb60212111b89b78f
:101820000212111b94b70212111bb9b70212111b3d
:101830000db80212111b73b80212111ba5b80212c7
:10184000111b9ed40212111bbed40212111be7d42d
:101850000212111b27d40212111b3bd40212111bbe
:1018600092d40212111bced50212111b4cd60212b9
:10187000111ba4d30212111bd1d30212111bc68e4d
:101880000212111b2d8f0212111b448f0212111b09
:10189000888f0212111bce8f0212111b349002127c
:1018a000111b88910212111bb0920212111b52934c
:1018b0000212111b76930212111bb8930212111b14
:1018c00066940212111bb4940212111b119502129c
:1018d000111b24950212111b24960212111b44970e
:1018e0000212111bba970212111b82450012111b22
:1018f0002a470012111ba4470012111bf7480012bf
:10190000111b69490012111ba3490012111b5c4aeb
:101910000012111bea4a0012111bad4b0012111be1
:10192000d54c0012111bcf4d0012111bfd4e0012a1
:10193000111b654f0012111bcd4f0012111b4a5095
:101940000012111b00510012111b72510012111bc9
:101950000b520012111b71520012111bdf520012a8
:10196000111b34530012111bca530012111b7d545a
:101970000012111b44550012111bfe560012111bc0
:1019800046590012111b8b590012111b075a0012e5
:10199000111b6f5a0012111bbd5a0012111b495c1a
:1019a0000012111beb5c0012111b595d0012111b80
:1019b000d25e0012111b355f0012111b566000121f
:1019c000111b3e610012111b64620012111bcb63dc
:1019d0000012111b86650012111b36680012111bc4
:1019e000c3680012111b80690012111b776a001274
:1019f000111bdb6a0012111b376f0012111b9d7146
:101a00000012111b6c720012111bd5740012111bf5
:101a100001760012111b87770012111b9e770012ae
:101a2000111b86fc0112111bc4fc0112111b2bfda2
:101a30000112111b57fd0112111b23fe0112111b74
:101a4000fafe0112111b9cd10212111bf5d10212d8
:101a5000111b56d20212111b00800112111b1e8095
:101a60000112111b3b800112111b58800112111b26
:101a7000bb800112111b4e810112111b2083011228
:101a8000111b86830112111bca830112111b0784cb
:101a90000112111b3c840112111b87840112111bbe
:101aa000f5840112111ba3850112111bb1850112ce
:101ab000111bed860112111b42890112111bce89e7
:101ac0000112111b028a0112111b498b0112111bf9
:101ad000858c0112111bac8c0112111be88c0112b8
:101ae000111b1b8d0112111bff900112111b27915d
:101af0000112111b89910112111b00970112111b78
:101b000042970112111b82970112111b3898011282
:101b1000111b13990112111b759b0112111bc19c02
:101b20000112111b329d0112111b6e9f0112111b1c
:101b3000e69f0112111b2aa00112111b78a00112ad
:101b4000111bcba00112111b67a10112111bb7a120
:101b50000112111b12a20112111b1ca20112111b56
:101b600059a30112111beea30112111bb2a4011201
:101b7000111b5ea50112111b13a70112111b35a722
:101b80000112111b52a90112111ba7aa0112111b4c
:101b900044ab0112111b98ab0112111bfdab0112da
:101ba000111bedad0112111bfead0112111b08ae90
:101bb0000112111bf7af0112111b54b00112111bbe
:101bc00091b00112111b05b10112111b34b10112a8
:101bd000111bddb10112111b58b20112111bb9b258
:101be0000112111b2fb30112111b66b30112111b3d
:101bf0009bb30112111bb9b30112111b18b40112ce
:101c0000111b26b40112111b65b40112111bd6b4ad
:101c10000112111bf8cf0212111b9cd00212111bd2
:101c2000c0d00212111b0bd10212111b4ad1021299
:101c3000111bdbff0112111b48f10112111b74f182
:101c40000112111bc0f10112111b0df20112111b27
:101c500089f20112111bcbf40112111bd0f50112f4
:101c6000111b31f80112111b01f90112111bf1f9bd
:101c70000112111be4fa0112111b55fb0112111b79
:101c800057fc0112111baec50212111bdac502125c
:101c9000111bf1c50212111b8bc60212111bb7c713
:101ca0000212111ba2b50112111b0fb60112111b5a
:101cb0002cb60112111b59b60112111bc2b601122a
:101cc000111beeb60112111b22b70112111b7ab7bc
:101cd0000112111ba7b70112111b0ab80112111b27
:101ce00065b80112111b2ab90112111bacb90112fe
:101cf000111b4ebb0112111b06bc0112111bb3befe
:101d00000112111b10c20112111b52c20112111b30
:101d1000a7c20112111b58c30112111b38c50112b1
:101d2000111bdcc50112111b1dc60112111b6bc654
:101d30000112111bc3c60112111be9c60112111bae
:101d40003cc70112111b7dc70112111bfec80112f5
:101d5000111b18ca0112111b29ca0112111b87cbb2
:101d60000112111b9dcb0112111bc5cb0112111bbe
:101d70007bcc0112111b90cc0112111bc2cc0112a1
:101d8000111bdacd0112111b9dce0112111be9cee0
:101d90000112111b2ecf0112111be1cf0112111bd9
:101da0003cd00112111b39d10112111b8dd101122e
:101db000111bd1d10112111b1bd30112111b30d5e4
:101dc0000112111b60d50112111b95cc0212111bbf
:101dd000a2cc0212111bc5cc0212111b08ce02129a
:101de000111b15ce0212111b43ce0212111b47ae5e
:101df0000212111bb7ae0212111be4ae0212111b2c
:101e00002eaf0212111bf9af0212111ba3b1021265
:101e1000111bfdb10212111b0bb20212111b12b3e6
:101e20000212111b7bb30212111b40ff0112111b86
:101e30006eff0112111b9eff0112111b59c80212e5
:101e4000111be6c80212111b18c90212111b89c905
:101e50000212111b2dca0212111b40ca0212111bc1
:101e600086100012111b0ed50212111b7bd5021217
:101e7000111b1dd602e066701008a3e066700a0808
:101e8000a3e066700408a3e06622c3e7960809e7aa
:101e9000960809e7960809e796a2d265d03322c3cf
:101ea000e09608a3e09608a3e09608a3e096a2d2e5
:101eb00065d03322c021c3e096f52108a3e0964205
:101ec0002108a3e096422108a3e0964221a2d26510
:101ed000d033e5217001d3d02122c3e09608a3e0de
:101ee0009608a3e09608a3e09622c021c3e096f5e9
:101ef0002108a3e096422108a3e096422108a3e02e
:101f00009645217001d3d02122080808eac0e0ebf1
:101f1000c0e086f0e7a4fa180986f0e7a42afa18c8
:101f20000986f0e7a42afa180986f0e7a42afa1924
:101f300086f0e7a4fbe5f02afa190886f0e7a42b5f
:101f4000fbe5f03afa190886f0e7a42bfbe5f03a36
:101f5000fa18180986f0e7a4c5f02bfbe43afa1941
:101f600008e7c5f0c6a426f6e5f03bfbe43afa180c
:101f700086f0e7a4f6e5f00826f6e43b08f6e43a36
:101f800008f6d0e0fbd0e0fa22e4cfc0e0e4cec017
:101f9000e0e4cdc0e0e4ccc0e075f020c3e633f669
:101fa00008e633f608e633f608e633f6181818ecb8
:101fb00033fced33fdee33feef33ffc3ec9709ed59
:101fc0009709ee9709ef97191919400fffec97fc45
:101fd00009ed97fd09ee97fe191906d5f0beecf74d
:101fe00009edf709eef709eff7191919d0e0fcd060
:101ff000e0fdd0e0fed0e0ff221220611818181298
:102000001f89122050191919221220501919190864
:102010000808e618181820e7e0121f891220611836
:10202000181822090909e719191920e7dc08080816
:10203000e618181820e703021f89122061181818e3
:10204000121f89122061181818122050191919220c
:10205000e4c397f709e497f709e497f709e497f7da
:1020600022e4c396f608e496f608e496f608e496a9
:10207000f6226017080808c6a2e713c618c613c6da
:1020800018c613c618c613c6d5e0e922601608089c
:1020900008c6c313c618c613c618c613c618c61377
:1020a000c6d5e0ea22700908080822601618181838
:1020b000c6c333c608c633c608c633c608c633c649
:1020c000d5e0ea22e627f60809e637f60809e637fa
:1020d000f60809e637f622e026f608a3e036f60809
:1020e000a3e036f608a3e036f622e026f008a3e0e7
:1020f00036f008a3e036f008a3e036f022c3e697f6
:10210000f60809e697f60809e697f60809e697f64d
:1021100022c3e0c696f608a3e0c696f608a3e0c67a
:1021200096f608a3e0c696f622e056f608a3e05617
:10213000f608a3e056f608a3e056f622e647f608ae
:1021400009e647f60809e647f60809e647f622e0f9
:1021500046f608a3e046f608a3e046f608a3e046e4
:10216000f622e046f008a3e046f008a3e046f008b7
:10217000a3e046f022e066f608a3e066f608a3e0d6
:1021800066f608a3e066f622e0f608a3e0f608a3e8
:10219000e0f608a3e0f622e493f608740193f6084b
:1021a000740293f608740393f622e6f008a3e6f0af
:1021b00008a3e6f008a3e6f022e0faa3e0fba3e020
:1021c000fca3e0fd22eaf0a3ebf0a3ecf0a3edf01a
:1021d00022cac0e0e6f0a308dafad0e0fa22cac0c8
:1021e000e0e0a30592f0a30592daf6d0e0ca22ca95
:1021f000c0e0e493a30592f0a30592daf5d0e0ca1b
:10220000225392fefae9fb7921e7f0a309dafae812
:10221000f0a3ebf9f0a3ecf0a3edf0a3eef0a3ef45
:10222000f0a3e520f0a3e5f0f0a3e592f0a3e584a8
:10223000f0a3e585f0a3e581f0a3e531f0a3e53255
:10224000f0a3e533f0a3d0e0fad0e0f0a3caf0eabf
:10225000c0e0e0c0e07a007b00225392fecac0e0fa
:10226000ebc0e07921e0f7a309dafae0f8a3e0f99e
:10227000a3e0fca3e0fda3e0fea3e0ffa3e0f520c4
:10228000a3e0f5f0a3e0c0e0a3e0f584a3e0f585ca
:10229000a3d0e0f592d0e0fbd0e0fae0f581a3e036
:1022a000f531a3e0f532a3e0f533a3d0e0d0e0e0d0
:1022b000c0e0a3e0c0e0ea4b70027a0122c3e498d8
:1022c000f8e499f91222fe8026c3e49afae49bfb13
:1022d000e920e7e91222fee498f8e499f922c3e440
:1022e00098f8e499f91222fee498f8e499f9c3e425
:1022f0009afae49bfb22eb20e7cfe920e7e0b90064
:1023000010bb0008e88af084f8aaf022e4fbc8fabf
:1023100022eb70227b10c833c8c933c9335007c3be
:102320009ac3dbf280069a50012adbeac833f4c86c
:10233000c933f4c9fa2275f008e4c833c8c933c9ef
:1023400033c99ac99b5004c92ac93bd5f0ecfbc8d4
:1023500033f4c8e4c9fa22600d08c6a2e713c61810
:10236000c613c6d5e0f322600c08c6c313c618c650
:1023700013c6d5e0f422700422600d18c6c333c61c
:1023800008c633c6d5e0f41822253210af08f5325e
:10239000400215338008f53240021533d2af22c017
:1023a000d0253210af08f532500205338008f532df
:1023b00050020533d2afd0d0222532f58210af08bb
:1023c000f532400215338008f53240021533d2afa2
:1023d00085338322c5822532c582c583353310af4c
:1023e00007f5338582328007f533858232d2afc557
:1023f00083222532f582e43533f583222532f584b4
:10240000e43533f58522e4735392fe2532c582c04c
:10241000e0e53334ffc583c0e0e532c3958224f89c
:1024200010af0885833385823280088583338582a7
:1024300032d2afcef0a3e520f0a37821e608f0a3d6
:10244000defaeff0a3e58124faf8e608f0a3e60847
:10245000f0a3e608f0a30808e608f0a3e608f0a356
:1024600015811581d0e0fed0e0f815811581158128
:10247000e8c0e0eec0e0225392fe2532c582c0e003
:10248000e53334ffc583c0e0e532c3958224f910fb
:10249000af08858333858232800885833385823215
:1024a000d2afcef0a3e520f0a37821e608f0a3deba
:1024b000faeff0a3e58124fbf8e608f0a3e608f0c4
:1024c000a30808e608f0a3e608f0a315811581d05b
:1024d000e0fed0e0f815811581e8c0e0eec0e02212
:1024e0005392fe853383853282e0a3fee0a3f5207c
:1024f0007821e0a3f608dffae0a3ffe0a3c0e0e064
:10250000a3c0e0e0a3c0e0e0a3c0e0e0a3c0e0100f
:10251000af08858232858333800885823285833394
:10252000d2afd083d0825392fe0211185392fe850f
:102530003383853282e0a3fee0a3f5207821e0a377
:10254000f608dffae0a3ffe0a3c0e0e0a3c0e0e00c
:10255000a3c0e0e0a3c0e010af08858232858333da
:102560008008858232858333d2afd083d082539264
:10257000fe22c0925392fec0d02532c582c0e0e553
:102580003334ffc583c0e0e532c3958224f210af37
:10259000088583338582328008858333858232d2f1
:1025a000afc8f0a3e9f0a3eaf0a3ebf0a37921e729
:1025b00009f0a3d8faecf0a3edf0a3eef0a3eff04e
:1025c000a3d0e0f0a3d0e0f0a3d0e0f0a3e520f0aa
:1025d000a3e5f0f0a3d0e0f0225392fe853383858b
:1025e0003282e0c0e0a3e0f9a3e0faa3e0fba37825
:1025f00021e0f608a3dffae0fca3e0fda3e0fea3e0
:10260000e0ffa3e0c0e0a3e0c0e0a3e0f5d0a3e0da
:10261000f520a3e0a3f5f0e0a3c0e010af088583a8
:10262000338582328008858333858232d2afd0e011
:10263000d082d083f592d0e0f8d0e032e584f0a3e8
:10264000e585f022e0a3f584e0f585227404800698
:10265000740280027401c0e0f4041223b9d0e012c5
:1026600021d12274048006740280027401c0e0f457
:10267000041223b9d0e01221de22d083d082e9c037
:10268000e0e493a3c386f0c5f095f0f908e493a3c2
:1026900086f0c5f095f0700be493a3c3994005e96b
:1026a000048002a3e475f002a42582f582e5f035ea
:1026b00083f583d0e0f9e493a3c0e0e493c0e02283
:1026c000c0e074f1122572123c839003851221c57b
:1026d000e58955ab900389f0e58090038cf07b0091
:1026e0007a007906121e0f758900c2c57f01022586
:1026f000d9c0e074f1122572123c83900385122137
:10270000c5e58a558d90038af0e59090038df07ba6
:10271000017a007906121e0f758a00c2eb80cdc0c7
:10272000e074f11225729061a9e4f0900393e064e3
:102730000f7012e5c7f89006a8e0f5c790ff1ce0ff
:10274000f4f5ae88c7e5bbf9e5bafae9fb90039367
:10275000e0c333f8e433f9749428f582740339f54f
:1027600083eaf0a3ebf0900393e02410fb7a007966
:1027700006121e0fe5a8f8c2af900812e0c2e2f000
:10278000753400e8a2e7a2e792af0226ecc0e0c0f1
:10279000d075d008c092c082c083c0f0e5d1f87572
:1027a000d100c2c0a2e350097b037a007904121e53
:1027b0000fd0f0d083d082d092d0d0d0e032c0e021
:1027c000c0d075d018c092c021c022c082c083c0c2
:1027d000f05392fe9005721228d7602b90052de0e1
:1027e000700c7401f07b007a007904121e0fee90d9
:1027f0000572f0e5c1c0e074742521f582740534da
:1028000000f583d0e0800be5c4a2e6500690052ccd
:102810007401f00228c6c0e0c0d075d018c092c0c4
:1028200021c022c082c083c0f0c2e95392fe90054d
:102830002fe0fa90052ee09a543ff860258a217423
:10284000302521f582740512294190052ff089c1a8
:10285000900570e06870197b027a007904121e0fef
:10286000800ee5a8f8c2af900812e0c2e312294d2d
:102870008054c0e0c0d075d018c092c021c022c022
:1028800082c083c0f05392fe9005fc1228d7602ac4
:102890009005b7e0700b7401f07b00fa7904121e0a
:1028a0000fee9005fcf0e5f9c0e074fe2521f582fd
:1028b00074053400f583d0e0800be5fba2e65006fa
:1028c0009005b67401f0d0f0d083d082d022d02110
:1028d000d092d0d0d0e032e0f52174012521543fd0
:1028e000fea3e06e22c0e0c0d075d018c092c02117
:1028f000c022c082c083c0f0c2ea5392fe9005b9e4
:10290000e0fa9005b8e09a543ff860258a2174ba3d
:102910002521f58274051229419005b9f089f990b5
:1029200005fae06870197b027a017904121e0f80a3
:102930000ee5a8f8c2af900812e0c2e412294d805b
:10294000853400f583e0f974012a543f22f0753490
:1029500000e8a2e7e433f9e8a2e792af22c0e0740e
:10296000f1122572759800e5a8f8c2af900812e040
:10297000d2e1f0753400e8a2e7a2e792af12174364
:102980007f010225d9c082c0835392fe906059e036
:10299000f89007e3e028f0906058e0f89007e4e052
:1029a00028f090605a1229be90605e1229be906095
:1029b0005ce0f89007e6e028f0d083d08222e0f8cf
:1029c0009007e5e028f022c082c0835392fe900772
:1029d000e3e4f0a3f0a3f0a380de74f71224777988
:1029e00000121dc790072f123213eac398f8eb9913
:1029f000f9e82404fee93400ff90073ce0fca3e082
:102a0000fdc3ee9cef9d402e90073ae0fca3e0fd55
:102a100090073ee02af8a3e03bf9e8c39cf8e99d63
:102a2000f990072f12320aa3ecf0a3edf090073cc7
:102a3000ecf0a3ed802390072f122ee090073c12bc
:102a4000300790073c12321390073112320a900778
:102a500038e070047402800114f07a2d7b07123a7a
:102a600012023a6574f7122477e9600924fe601daa
:102a700014601a8032900736e0a2e35009900739bb
:102a8000e06024148020c2e2f0d2e380199007367f
:102a9000e0a2e2500c900739e06408600ae004808c
:102aa00005c2e3f0d2e2f0900737e07008900735f6
:102ab00074fff0804890600a122ed8703d90618fac
:102ac000e0c0e0900739e0f87408c398f8d0e0b8a7
:102ad00000028004c313d8fcf52174ff652170093e
:102ae00090600ae4f0a3048010e5212401f8e434a6
:102af00000f990600ae8f0a3e9f01229da023a65d9
:102b000074f7122477e924fc600624fe6029800d06
:102b10009007fce06401705f121b21805a900756f9
:102b2000e064017012900750e4f07b091232dcfa85
:102b30007900121e0f8040900750e0700890074ef9
:102b400074fff080327900121dc78a218b22a821e0
:102b5000a922900752e028faa3e039fb90618fe0a8
:102b6000541ff8ea28f8eb3400f990074812320aab
:102b70007a467b07123a12023a6574f71224777488
:102b8000fe1223b912263c9007a0123213e8241239
:102b9000fae93400fb90605ce060088a828b83e095
:102ba000d2e1f0e82430fce93400fde82432f58479
:102bb000e93400f58590605ae0700690605ee06050
:102bc000368a828b83e0a2e14019d2e1f0e8242228
:102bd000f582e9122ebd122ed01223768c828d83bf
:102be000123a0ae40592f0a3f07900853282853327
:102bf000835392fe023a5de8241ef582e9122ec448
:102c0000fea3e0ff858482858583e02ef0a3e03f6c
:102c1000f08c828d830592e0fca3e0fdc30592e079
:102c20009ca3e09d50c388828983a3a3a3a3a3a3ed
:102c3000a3a3a38582848583858a828b83e0a2e116
:102c4000500474088002743e0592f07b02888289e9
:102c5000830592a3a3a3a3a3a3a3a3e0fa790012dd
:102c60001e0f7901808574f512247774fe1223b942
:102c700012263c122ec8240a122eacfc7003022e1f
:102c800094ee242e1236ce1232138e828f83a3a39b
:102c9000a3a3a3a3a3a38582238583248e828f83ea
:102ca000a3a3a3a3a3a3a3a3a3aa82ab83ee2434c9
:102cb000122ec1687003a3e069701a74026c70036d
:102cc000022e2a74016c607774096c60258a828bed
:102cd0008374228055ec146066147003022e2a243b
:102ce000fa601c14600c146042147003022e70020f
:102cf0002e94906008e0a2e65003022e94802cee01
:102d00002439122eba801388828983a3a3a3e06496
:102d1000037003022e9488828983122ed870e88a69
:102d2000828b83e0641370037416f07b0285238228
:102d3000852483e0fa7900121e0f7901022e96eea7
:102d400024551234d2ee244cfcef3400fdea24ff6b
:102d5000f521eb34fff522e521687003e522697067
:102d60006dee244d122f668e828f83122ede8c82a2
:102d70008d83e0c333f8e433f9e82403f8e9340041
:102d80001232019007d1e0a2e050098e828f83a316
:102d9000a31232069007ebe4f0a3f0a3f0a37402b1
:102da000f09007d1e0a2e04003022e94906062e42c
:102db000f08c828d83e0f875f0e2a4c8aaf075f07b
:102dc00004a42af9e81231f612320a022e94ea68b3
:102dd0007002eb696003022e947521097522007858
:102de00021122650ee241bfaef3400fb121e6974e8
:102df0000212239f9007d1e0a2e05007eefaeffb0a
:102e0000121a6de40592f0ee24221236ce122ed064
:102e1000122376ee2430122eba123a0aee2432121f
:102e20002ebae4f0a3f07b08805de8240108e934c1
:102e300000f9ee245c122ec1687003a3e06970549f
:102e40007521057522007821122650ee2457fcefdb
:102e50003400fdee2424faef3400fb121e697402e4
:102e600012239feefaeffb121b1be40592f0802465
:102e7000eefaeffb121749e40592f005929007d1a4
:102e8000e0a2e0500f7b07852382852483e0fa7956
:102e900000121e0f79008532828533835392fe1211
:102ea0002644740212239f7f0402252cf584ef34fc
:102eb00000f5850592e022ee2414f582ef1234c469
:102ec00022f582ef1234cc229007a0123819ee229c
:102ed0001230337403782122123217e84922a3a357
:102ee000e028f0a3e039f02274f812247774fe127f
:102ef00023b912263c9007a0e0f584a3e0f58512e3
:102f00002c66e9704e122b7ae97048e584242ef580
:102f100082e585122ec42401f0a3e03400f0906015
:102f200008e0c0e0e5842436f582e585122ebdd0a8
:102f3000e0f0e584241ef582e585122f690592a351
:102f4000a3e028f0a3e039f005929007a01234d551
:102f5000123a128532828533831226447402122378
:102f60009f7f0102252cf582ef1234c4122f7022ac
:102f7000e0f8a3e0f9e8c333f8e933f92274f71273
:102f8000247774fe1223b912263c8a828b83a3a372
:102f9000ac82ad839007f0ea241ef584eb122eafcd
:102fa000f8a3e0f9e8c333f8e933f99007d3e0f583
:102fb00021a3e0f52212301d0592e028f8a3e039a4
:102fc000f98c828d8312320a9007eb1230108c82ba
:102fd0008d831230079007ed1230107a207b4e124d
:102fe00022fe882189228c828d83e09521f0a3e046
:102ff0009522f09007f2123010e8c333f8e933f964
:10300000e81231ee023a56c3e098f0a3e099f022bc
:103010001232179007d312303312301d22e8852167
:10302000f0a4c8aaf08522f0a42afa8521f0e9a428
:103030002af922e0f521a3e0f5222274f712247781
:1030400074fe1223b912263c122ec82412122eac82
:10305000a2e35008c2e3f005920231e28e828f8330
:103060000592a3a3858221858322906062e060108f
:103070007910121dc7852182852283eaf0a3ebf027
:10308000122c66e960030231eb122b7ae96003022d
:1030900031eb906008e0c0e0ee2436122ebad0e0aa
:1030a000f09061d5e0f89061d7e06805926005e0a6
:1030b000d2e28003e0c2e2f00592906062e0900705
:1030c000ed6017e024c0faa3e03437fb123c5890bf
:1030d00007f212381f1231ee80151234d5123c421d
:1030e0009007f2122f6c906064e028f0a3e039f0b2
:1030f000852182852283e024fff0a3e034fff0eef7
:10310000242b122ec19007eff0ee2420122eba12bb
:103110002ed8604b8e828f83a3a3a3a3a3a3a3a3c4
:10312000a3a3e0703aee24321234d2ea4b7030eeb0
:1031300024391234d2ea4b7026e8240108e934001d
:10314000f99007d312320a85218285228312321325
:103150009007f012320aeefaeffb122f7d802790d3
:1031600007d37401f0a3e4f0ee241e122f6685212c
:1031700082852283122ee09007eb12321385218282
:103180008522831230078e848f850592a3a3a3a383
:10319000a3a305929060641232137a717b0212220b
:1031a000fee82405f8e93400f985848285858312d8
:1031b000320a8e828f83a3a3a3a31234d58584827f
:1031c000858583e0f8c3ea98eb99a2d265d03350a5
:1031d00005eaf0a3ebf0123210ee242e122eba12f2
:1031e0002ee09007a01234d5123a12023a5712314b
:1031f000f6e8f0a3e92224eaf8e93402f9906064e1
:1032000022f98e828f83a3a3a3a3e8f0a3e9f0227f
:103210009007d312321722e0f8a3e0f92274f712d4
:10322000247774fe1223b912263c803bc2e5f012cb
:1032300032cae0f808089007fae028f01232dcc041
:10324000e01232cad0e0f09007fae004f0a3e00404
:10325000f0a3e004f09007fee0700c7401f07b0036
:103260007a007900121e0f90605ae0f521906002fa
:10327000e0a2e050047800800590605de0f89007df
:10328000fbe0fae52128f8e43400f9e86a7001e986
:1032900060359007fae004547ff52174802521f50c
:1032a0008274601236d19007a0e0f8a3e0c8240829
:1032b000f584e83400f585e0a2e70592e0400302da
:1032c000322cd2e502322e023a579007fae0547fb0
:1032d000f8748028f58274601234c4229007a0e04c
:1032e000f8a3e0c82408f582e81234cc2274f51261
:1032f000247774fe1223b912263c89210592900787
:10330000a0e0f582a3e0f583858284858385a3a36d
:10331000a3a3a3a3a3a3e0a2e740479007fde0f87f
:10332000906054e0c398f5229007fde02522f0aeae
:1033300082af838012ee2439faef3400fb121a4375
:10334000ea4b6003121c2985222374ff2523f522f2
:103350000470e2e521a2e640097900eefaeffb12e3
:103360001b99022e96c0e074f11225728535c67540
:10337000a70075a1007950121de57f010225d975be
:10338000bf0032c0e0c0d075d008c092c082c083f8
:10339000c0f08535c6e591fe759b00f4f59153921a
:1033a000fe906002e0a2e050047800800278087984
:1033b00000e844015e600312321deea2e55004f9fc
:1033c0001232edeea2e75029e5a8f8c2af9008123c
:1033d000e0d2e0f0753400e8a2e7e433f9e8a2e7d0
:1033e00092afe594a2e24009759403e594a2e250fd
:1033f000faeea2e6400302349e906061e0f9900785
:10340000fbe4f09007fdf09007a01234d58a828b80
:1034100083a3a3a3a3a3a3a3a3e024046010146025
:103420000814700f122a64806d122b008068121a23
:103430006780639007d0e060051460338048906037
:1034400060e064806040e0c0e0ea2413f582eb12a3
:103450002ebdd0e0f0906060e0c0e09007a0e0f802
:10346000a3e0c8242cf582e81234b2d0e080169094
:103470006058e0f890605ce028f8ea242cf582ebd4
:103480001234b2e028f09007d1e0a2e050051230eb
:103490003b8003122ee8122985121a558004a2e7f8
:1034a0005003123a6ad0f0d083d082d092d0d0d0dc
:1034b000e0321234ccfa74ab2af58274071234c4a9
:1034c00022f582ef3400f58322f582ef3400f58394
:1034d000e0221234c1e0faa3e0fb2274f712247751
:1034e00074fe1223b912263c9007a0e0fca3e0fd75
:1034f000123210ec2429f582ed122ebdec242bfaa9
:10350000ed3400fb8a848b857401687001e97012c8
:10351000e0f80592e028fac39425402a74db2afae1
:103520008024e0f521e88521f0a4f8aaf08521f0b7
:10353000e9a42af90592e0fae82af8e93400f97ad0
:10354000257b001222feeaf074075af87401b800d5
:10355000028004c333d8fcfbea131313541ff8eca6
:1035600028f8ed3400f9e82424f582e91236d1e098
:103570005b702a8005e8cac39afaec24e5f582ed6f
:10358000122ec4f8eac39850ec8a21ec2521f8edfc
:103590003400f9e824c0f582e9122ec4faec242c98
:1035a000f582ed122ebdea023a5674f612247774b3
:1035b000fe1223b912263c900757e0906002600487
:1035c000740e8002740ff0900751e0906001f0904b
:1035d00009ed1221b99061951221c5121ba5900722
:1035e00056e0f5217401652190074f7040e05402c8
:1035f000f97a587b07121a8b90074fe0a2e0500926
:103600007add7b0775214080077ad77b077521001b
:10361000a2e150047e8080027e007523067823128a
:1036200026547c587d07e5214e44018066e0a2e0e7
:1036300050087add7b07784080067ad77b077800d0
:10364000059290077d12266b7c5e7d0774f1252123
:10365000f58274091236d1e048f9121a91740112f8
:10366000239f900756e0f86005740268702e90075b
:103670004fe0a2e050087add7b07784080067ad7d9
:103680007b077800059290079d12266b7c7e7d0754
:10369000e84404f9121a91740112239f90074fe035
:1036a000a2e0e433f9121a85759100900757e09073
:1036b0006182600474c8800274c0f08532828533f0
:1036c00083122644740212239f7f0302252cf58265
:1036d000ef1234c4059222c082c0835392fe9060e0
:1036e00002740ff0900738e004f064037002e4f015
:1036f000e02425906000f09009ed1221b9906195c9
:103700001221c5900736e05420f9121a85121ba524
:10371000900736e0a2e15004d2f08002c2f0a2f09d
:10372000e43390600cf0900736e0a2e1503575d993
:103730000da2e55004784080027800e84403f5d9f2
:10374000e0a2e550067add7b0780047ad77b077913
:1037500006121a5b740675d9001470fae5e170fc64
:1037600075e19575910090618274c10229b874f871
:1037700012247774fe1223b912263c12380c121b45
:10378000a5122eb71221b99061951221c512385297
:103790001234db123824f584ef3400f585858482f9
:1037a00085858312383d121b99ee2412122ec1a278
:1037b000e250180592e0f8a3e0f58388820592a311
:1037c000a3e02402f89061d5e028f0022f5374f8aa
:1037d00012247712380c121ba5122eb71221b990a1
:1037e00061951221c51238521234db123824122e80
:1037f000ba12383d121b99ee241e122eba12381f2f
:1038000024fcf8e934ff123201022f619007a01264
:103810003819906002740ff022e0fea3e0ff22123c
:103820002f70e822ee242c1234c9906000f07591bc
:1038300000900807e0906182f0ee243922123217de
:10384000ee24371234c1e8f0a3e9f07900eefaef84
:10385000fb22ee24361234c9906008f0ee241812d0
:1038600034c9906005f0ee24191234c9906006f056
:10387000ee241a1234c9906007f09060607480f0f2
:103880002274f112247774fe1223b912263c75219a
:10389000007522007ca77d07801b888289831238ef
:1038a000198c828d83eef0a3eff088828983123a1f
:1038b0000a882189228c828d83122ecb4f70398cfd
:1038c000828d83eaf0a3ebf08a828b83e4f0a3f08d
:1038d000aa21ab22853282853383122644740212d8
:1038e000239f7f0802252ce5232527f8e52435288a
:1038f000f98a828b83122edeeef8eff988828983b3
:10390000a3a38a848b850592a3a3e0f523a3e0f506
:10391000240592e0c39523f523a3e09524f5248a9a
:10392000828b83a3a3a3a3a3a3e0f525a3e0f5269d
:10393000c3e5239525e5249526a2d265d033403ee4
:103940008a828b8312320a8a828b83a3a3a3a385e4
:103950008284858385123213c3e52398e52499a2d6
:10396000d265d033500d858482858583e523f0a30d
:10397000e524f08c828d83eaf0a3eb0238cf8882b5
:103980008983a3a3a3a3a3a3e0f527a3e0f528c3fa
:10399000e49527f525e49528f526c3e5259523e547
:1039a000269524a2d265d03350288a828b83a3a384
:1039b000a3a3a3a3a3a3e0a2e750030238e788824e
:1039c0008983a3a3a3a3a3a3a3a3e0a2e750030215
:1039d000389a88828983a3a3a3a38582848583855b
:1039e000c3e49523fce49524fd123819c3ec9eed45
:1039f0009fa2d265d033500b858482858583ecf0fd
:103a0000a3edf0e8fce9fd0238b5e521f0a3e522dd
:103a1000f02274f712247774fe1223b912263ceabe
:103a20004b6031a2afe433fec2af1238818a828b81
:103a3000838016aa82ab838582848583850592e084
:103a4000f582a3e0f583123881e582458370e4eec8
:103a5000a2e092af8001f085328285338312264442
:103a6000740212239f7f0202252c74f512247779a9
:103a700000121dc78a238b247977121de59061b14e
:103a8000e4f0e070f87403f0e0640370f89007a7c6
:103a90001232139007a012320ae8497012123baf9b
:103aa000e594a2e24003023ba9759400023ba98879
:103ab0008289831234d59007a7eaf0a3ebf08882bd
:103ac0008983a3a312303388828983a3a3a3a3e0ad
:103ad0002521faa3e03522fbea24fdfeeb34ffffab
:103ae00088828983a3a3a3a3a3a3a3a3e024046040
:103af0001214600514600780471235aa80521236ee
:103b0000d7804de521c39523e5229524c39400a2d7
:103b1000d265d0335025e5232401f521e524340076
:103b2000f522c3e5219ee5229f400ae5212401fefe
:103b3000e5223400ff90072f123a0a121bab8010c7
:103b40009007d1e0a2e0500512376e80031237ce05
:103b5000aa21ab227930121dd9eefaeffb7940127f
:103b60001dd97954121de5e521c39523f8e5229569
:103b700024f9c3e89401e99400a2d265d033500c33
:103b8000121bbde5e170fc75e121801d9006a7e0e8
:103b9000a2e04012aa21ab22121dd39007e7122106
:103ba000c5123baf8003121bbd121c9b022ea7e562
:103bb000a8f8c2af900812e0c2e0f0753400e8a2a5
:103bc000e7a2e792af220000853487c2af22c0e0af
:103bd000c0d075d010c092c082c083c0f074fc12f7
:103be00023895392fe900813e0601c121a7f9006fe
:103bf000a7e054117008e5c654384487f5c690080c
:103c000013e4f0c2c78026c2c7853282853383aaf7
:103c100082ab83121bb7e964017012900813740120
:103c2000f08532828533831221b9121c8f753400de
:103c3000740412239fd0f0d083d082d092d0d0d001
:103c4000e03275c3007420c39afa744e9bfbeaf508
:103c5000a2ebf5a35392fe22c02175c301e5a2f5a4
:103c600021e5a375c300f9e5212420f8e9344ef9d4
:103c7000e8c39af8e99bf9e8f5a2e9f5a3d0215346
:103c800092fe22c082c08374fc122389e5a8f8c288
:103c9000afe5958532828533835392fef0e596c079
:103ca000e074011223f2d0e0f0e597c0e074021254
:103cb00023f2d0e0f0e8a2e7a2e792af7403122368
:103cc000f2e4f08532828533831221b97404122321
:103cd0009fd083d082220001000002000000b913af
:103ce0000000000100000000e313000000020000db
:103cf0000000f5130003000324000000d7130002a6
:103d0000000404000000dd130000000500000000b6
:103d1000251400000006000000008b1400050007b9
:103d2000260000003d140000000800000000c71439
:103d300000020009820000001f140007000a2a0088
:103d40000000cd140007000b2a000000d31400006f
:103d5000000c00000000d9140002000d2200000039
:103d600013140003000e22020000191400000100c9
:103d70000000000037140000010100000000bb1427
:103d800000000102000000002b1400030103840066
:103d90000000491400020104040000004314000262
:103da00001050400000031140001010602000000ba
:103db000e9130003010784000000ef130004020070
:103dc000240800009714000402014400000071134d
:103dd000000202020400000077130003020322081d
:103de0000000651300020204220000006b130001b2
:103df0000300020000005313000103010200000051
:103e0000c11400090302424404004d1300010303de
:103e100002000000d1130001030402000000bf13e0
:103e20000002030582000000c51300010306020022
:103e30000000cb130001030702000000471300023b
:103e40000308820000001713000804004244080021
:103e5000591300060401428400007d130006040289
:103e60004284000089130005040342040000831308
:103e700000030404420000008f13000404054208fc
:103e800000009b130004040642080000b313000165
:103e90000407020000005f13000304084200000052
:103ea00095130006040942840000a1130002040acd
:103eb00022000000a7130002040b82000000ad13d3
:103ec00000020500220000000d140001050102009f
:103ed00000009d140001050202000000a914000367
:103ee000050322020000a31400050504620000007f
:103ef000af14000005050000000085140001050650
:103f000008000000551400020600220000004f14b3
:103f100000020601220000006114000106020200f6
:103f200000006714000f06032a44440079140000bf
:103f30000604000000007f14000806054444000049
:103f40006d14000306062202000073140005060724
:103f50004402000001140005060844020000071492
:103f60000002060982000000fb130007060a2a006f
:103f700000005b140003070022020000f714000693
:103f800007012602000003150003070222020000b9
:103f9000fd140002070322000000091500020704b7
:103fa000220000000f15000307052202000015156e
:103fb00000030706220200001b150002070722006b
:103fc00000002115000607082222220033150002f6
:103fd00007098200000039150003070a22020000c9
:103fe00027150003070b220800002d150001070c00
:103ff0000200000091140005070d224200003f1549
:104000000003080022020000291300010801020039
:1040100000002f130000080200000000351300000c
:104020000803000000003b1300000804000000002b
:1040300041130001080508000000231300010806d1
:10404000020000001d1300010900020000004515d8
:1040500000040901060000004b15000109020800d8
:104060000000511500000903000000005715000072
:10407000000000000000df1400000001000000004c
:10408000df14000600020a000000df140002000333
:1040900004000000df140003000424000000df140b
:1040a0000005000522220200df14000100060200c4
:1040b0000000df140005000786000000df14000c7c
:1040c000000844442402df14000200090400000038
:1040d000df140002000a04000000df140002000bdd
:1040e00004000000df140000000c00000000df14da
:1040f0000003000d84000000df140002000e040025
:104100000000df140000010000000000df140000c8
:10411000010100000000df140000010200000000a7
:10412000df140002010304000000df140003010497
:1041300084000000df140000010500000000df140f
:104140000002010604000000df1400000107000067
:104150000000df140002020004000000df1400076a
:10416000020144840000df1400050202440800003c
:10417000df140000020300000000df14000002044e
:1041800000000000df140003030042000000df1401
:104190000002030132000000df14000303024200aa
:1041a0000000df140003030342000000df140002dc
:1041b000030482000000df14000303054200000036
:1041c000df140003030642000000df1400010307b0
:1041d00002000000df140001030802000000df14e9
:1041e0000003040042000000df1400030401420049
:1041f0000000df140003040242000000df1400038b
:10420000040342000000df14000304044200000025
:10421000df140003040542000000df14000304065d
:1042200042000000df140002040704000000df1455
:104230000003040842000000df14000304094200e8
:104240000000df140003040a42000000df14000332
:10425000040b42000000df140003050042000000d0
:10426000df140000050100000000df140002050259
:1042700004000000df140000050300000000df144c
:104280000002050404000000df140001050502001f
:104290000000df140000050600000000df1400002d
:1042a000060000000000df14000206010400000008
:1042b000df140002060204000000df1400030603fe
:1042c00024000000df140002060404000000df14d4
:1042d0000003060524000000df14000206060400a7
:1042e0000000df140002060704000000df140002d3
:1042f000060804000000df140002060904000000a4
:10430000df140002060a04000000df1400020700a8
:1043100004000000df140002070104000000df14a5
:104320000002070204000000df140002070304007b
:104330000000df140002070404000000df14000284
:10434000070504000000df14000207060400000057
:10435000df140004070724020000df14000207082e
:1043600004000000df140004070924080000df1423
:104370000003070a84000000df140001070b02009d
:104380000000df140000070c00000000df14000232
:10439000070d04000000df1400000800000000000a
:1043a000df140000080100000000df140002080212
:1043b00004000000df140000080300000000df1408
:1043c0000001080408000000df14000108050800cf
:1043d0000000df140000080600000000df140000e9
:1043e000090000000000df140002090104000000c1
:1043f000df140002090204000000df1400020903b8
:1044000004000000df14800c000044442402df1488
:104410008001000108000000df1480020002220079
:104420000000df148002000322000000df1480047b
:10443000000444000000df148000000500000000bc
:10444000df148002000604000000df148003010076
:1044500084000000df148007020022440800df14fb
:104460008006020142240000df14800302022400bf
:104470000000df1480100300222a4424df14800689
:10448000030122440000df148002030282000000c6
:10449000df148002030382000000df1480030304a2
:1044a00042000000df148003040042000000df141b
:1044b0008005040142040000df14800604024284e7
:1044c0000000df148007040342240800df14800486
:1044d000040442080000df14800504054282000045
:1044e000df148002040682000000df148003050050
:1044f00022080000df148003050142000000df14e1
:104500008005050262000000df148001050302003f
:104510000000df148004050422220000df14800b59
:104520000600232a8200df14800206012200000018
:10453000df148007070026220000df148001070136
:1045400002000000df148003070252000000df14a5
:104550008004090006000000df14000000000000d5
:1045600000000000b5080fd30808e30805ed0809ae
:10457000ff080c17090725090b3b090e57090765aa
:10458000090474f012240874f0122389e5c7f52891
:1045900075c70375211075220078211226507c1de5
:1045a0007d0774021223f2aa82ab83121e69740281
:1045b00012239f78211226507c007d007a1d7b07f4
:1045c000121e6f740212239f75210080588521826c
:1045d000a882e875f075a4faabf09006a312471d07
:1045e0002474f582eb127459a2e050377f008f8259
:1045f000ac82e875f03ba4faabf090071312471dac
:104600002cfaeb3400fbea241af582eb127459fa07
:10461000741d2cf58274071274594af00fefc3947d
:104620001040cb05219006a2e0f8e521c398409dfb
:10463000752100852182a882741d28f582740712d5
:104640007459fa853282853383e58228f582e583c1
:104650001274596af00521e521c3941040d57521e3
:1046600000852182ae827f00853282853383e58298
:104670002ef582e583126245a3a3a3a3e0f8853259
:1046800082853383e5822ef582e58312745948f5dd
:104690002260768f27e522a2e0505b7523018f24ec
:1046a000e5277823122376a823741d2ef58274073c
:1046b00012745958600479018002790074252ef52e
:1046c000827407127459586004e9d2e1f98e238f7d
:1046d0002474037823122376852725e5232525fadc
:1046e000e5243400fb74a02af58274f73bf583e0df
:1046f000fa7b001216110527e522c313f522e527e0
:10470000c394085004e522708c0521e521c3940868
:1047100050030246618528c77410024ccd12472110
:1047200022e02afaa3e03bfbea2274f6122408e90d
:1047300075f03ba4faabf0121761900713126e8468
:10474000e5c7ff75c70390f79e125ecee4c39af5e6
:1047500021741f9bf52278211226507c007d0012c7
:104760001e6f740212239f8fc77cc57d097aa57bbb
:1047700006121a4979087c157d077a007b00121c05
:1047800071e96408601b75210875220078211226e2
:10479000507c007d007a157b07121e6f7402122375
:1047a0009f024f6074f012240874fe1223b912267f
:1047b0003c8a278b28126a6f0592a3858221858304
:1047c00022125eceea4b60158e828f83a3a3a3854f
:1047d0008223858324c3e09aa3e09b5008790112c9
:1047e00018f90248d205929009c91226637b070581
:1047f00092126a5d121e03740412239f8e828f83ad
:10480000a3a3a3a3a38582258583268e828f83e01d
:1048100014604a14606414602c14600d1470030258
:1048200048b824fe607d0248d2852384852485050e
:104830009212266785218285228305921248ef1203
:1048400017b50248cb782512265085238485248508
:1048500005921226671248dc1217a98016782512d5
:10486000265085238485248505921226671248dc0c
:1048700012177f740412239f805f7825122650ee52
:104880002417f584ef12773c05921226678523845e
:104890008524851226671248dc12176d74061223d0
:1048a0009f8036ee2417f582ef127459f523a3e0aa
:1048b000f524e523452470081248e91217af801942
:1048c00078231226501248e9121785740212239f8a
:1048d0008007aa27ab28121c29026f2eee2415f59b
:1048e00082ef127e0b0592e0f985218285228312e8
:1048f0006391aa27ab282274f612240874fe1223af
:10490000b912263ceafeebff8921126a5b121dfdfb
:10491000124f4c242af582e58512745960220592c3
:10492000e024fd600c24fc70147407652170118074
:104930000c740a65216006740165217003752100fd
:10494000e4439201f00592f09006a1e0f522ac213b
:10495000eefaeffbe0f91215db9006a1e0652260ac
:1049600005a922121839024f5274f6122408e9ffe1
:104970008c218d22740a1223f2e0fd9006a1e0fe44
:104980007821122650effc9006a1e0f912158d74e3
:104990000212239f9006a1e06e6005eef91218390d
:1049a000024f6074f212240874fe1223b912263cde
:1049b0008a258b26124a49121dfd9006a1e0ff852b
:1049c0008482858583a3858223858324782112268a
:1049d00050eefd7c04852382852483124ae1121562
:1049e0008d740212239f9006a1e06f6005eff9120b
:1049f0001839e5842417f8e5853400f98e2188827a
:104a00008983e02521f0a3e03400f074166e70175e
:104a100088828983c3e09416a3e094004009aa2504
:104a2000ab261218f380197900852382852483121e
:104a30005ece1218f9e40592f0aa25ab26121c29c5
:104a400085328285338302771e8c218d22e9fe1206
:104a500060427b079006a1e0fa79012274f41224e7
:104a60000874fe1223b912263c8a238b24124a4969
:104a7000121dfd0592e0f8740768700feef9ac2185
:104a8000ad22aa23ab24121905804d740a68059241
:104a90009006a1700fe0ffeefcaa21ab22e0f91214
:104aa0001593801de0ff7821122650eefd7c0085d5
:104ab0008482858583a3124ae112158d7402122324
:104ac0009f9006a1e06f6005eff9121839e4059296
:104ad000f0aa23ab24121c29853282853383026815
:104ae00020127e769006a1e0f92274f01224087458
:104af000fe1223b912263c74fe1223898a278b28c2
:104b00008a828b83a3a3a3a3a3a3a3a3a3858225a4
:104b1000858326126a5b121dfd852782852883a363
:104b2000a3e024faf523124edb852584852685052e
:104b300092a38532828533830592124eb87e00801f
:104b40004b9006a1e0ffe5842402f521e5853400c1
:104b5000f522782112265074fe29fd7c038584827b
:104b6000858583124ae112158d740212239f9006e7
:104b7000a1e06f6005eff91218398525828526833b
:104b8000e0f5212efee584252112773885258285e2
:104b90002683e0f9eec3952340a78921e523c39539
:104ba00021124ea9124ee81218f3026f2974f01266
:104bb000240874fe1223b912263c74fe1223898a3b
:104bc000238b24126a50121dfd852382852483a322
:104bd000a3e024faf52212603e858427858528e526
:104be00027242af582e528126a4c7401f0126ed24d
:104bf000640170047e0280027e107521008010e046
:104c00006f6005eff912183974022e2521f521e5a0
:104c100021c39522505a5392fe9006a1e0ffa8218d
:104c200085328285338312697912773ceef52578d7
:104c300025122654e5842403fce5853400fd124c3e
:104c4000b105929006a1e0f91215a5740112239ff7
:104c5000e99006a170a9e06f6005eff91218398597
:104c60002782852883e4f0aa23ab24121c29803ee6
:104c7000852221e52124fef8e434fff98e21e8c3e2
:104c80009521f8e99400f98532828533835392fea9
:104c90001268b32401f8a3e03400f985278285283f
:104ca000830592a3126382aa23ab241218f3026f26
:104cb000290592a3e0faa3e0fb22740212239f8548
:104cc00032828533835392fe122644740212239f4c
:104cd0007f080224e074f012240874fe1223b91233
:104ce000263c74fe1223898a278b28126a50121dd3
:104cf000fd852782852883a3a3e024fbf521125a92
:104d00005b0592900713125eae858225858326e5aa
:104d100025242af582e526125ab47f00800de06e24
:104d20006005eef912183974042fffefc395215076
:104d30005feff8853284853385124dc6126a4c8543
:104d4000828485838505929006a1e0fe7522027813
:104d500022122654e5252417f523e5263400f524f0
:104d60007823122650124ec412159f740312239feb
:104d7000e99006a170a8e06e6005eef91218398579
:104d80002582852683e4f0aa27ab28121c298033cc
:104d9000a821853282853383e028f8a3e0126e8d46
:104da00024fef582e934fff583e02401f8a3e03422
:104db00000f9852582852683a3126382aa27ab2862
:104dc0001218f3026f290592e028f582a3e02274fd
:104dd000f012240874fe1223b912263c74fe12232a
:104de000898a278b288a828b83a3a3a3a3a3a3a347
:104df000a3a38582258583268a828b83a3a3e024af
:104e0000faf521126a5b121dfd124edb8532828596
:104e10003383124eb87f008012e06e6005eef91207
:104e20001839852582852683e02fff8525828526f2
:104e300083e0f8efc39521505b8f23e5252523fa06
:104e4000e5263400fb8a828b83a385828485838553
:104e50009006a1e0fe74fc28f5227822122654ea7e
:104e60002405f523eb3400f5247823122650124e46
:104e7000c412159f740312239fe99006a1709ae053
:104e80006e6005eef91218391274c7aa27ab281202
:104e90001c2980128823e521c39523124ea9a3a3c0
:104ea000124ee81218f3026f29f895e0f9e525286b
:104eb000f582e52639f58322127dd2242a127e0856
:104ec0007401f022858482858583a3a3125eb7fadc
:104ed000a3e0fb05929006a1e0f9221274b185329d
:104ee000828533831275d922a3e02401f8a3e0124e
:104ef0006a651274a41275d8aa27ab282274f61218
:104f0000240874fe1223b912263c121839e97004e1
:104f10007a86801c124f4c24161277380592e0a234
:104f2000e040047a818009121c23ea4b70067a82e1
:104f30007b01800d0592e0c2e0f01217c17a007b80
:104f4000008532828533835392fe800c126042e5e5
:104f50008422853282853383122644740212239f71
:104f60007f020224e074f212240874fe1223b912a4
:104f7000263ceafeebff8c258d26121839e97004d9
:104f80007a8680121252d860047a818009121c231a
:104f9000ea4b70067a827b01803074101223f2e0b3
:104fa000f8c39414500488228003752214852523a5
:104fb0008526247823122650a922eefceffd121735
:104fc000a3740212239f7a007b0002771574f012fb
:104fd000240874fe1223b912263c8a278b28ecff82
:104fe000121839e970047a8680251252d860047a42
:104ff00081801cefa2e04005c3940450047a8080b5
:105000000e121c238a258b26ea452670067a827b9f
:10501000018034efc394165004effe80027e1674b4
:105020000a1251661226637b070592126a5d121ef0
:1050300003740412239feef9ac27ad28aa25ab26f2
:105040001217977a007b00024cbf74f21224087486
:10505000fe1223b912263c74fe1223898a238b2464
:10506000ecfeedff74121223f2e0f525a3e0f52625
:10507000121839e970047a86801d1252d860047ab9
:10508000818014e523452470047a80800a121c2351
:10509000127e2b70067a827b01805d74141223f2db
:1050a000e0f8c3941250048821800375211274081b
:1050b0000592f0a3e523f0a3e524f09009c9122698
:1050c000637b070592126a5d121e03740412239f0c
:1050d00078251226508e258f267825122650a92154
:1050e000ac23ad2474041223f2125ece12178b741b
:1050f0000412239f7a007b00740212239f0277150b
:1051000074f412240874fe1223b912263c8a221267
:105110001839e970047a86801a1252d860047a81ac
:105120008011121c238a238b24ae23af24ee4f70f0
:10513000067a827b01802c74091251661226637be9
:10514000070592126a5d121e03740412239fe52262
:105150006004790180027900eefaeffb1217917a70
:10516000007b000268170592f0a3e4f0a3f0900919
:10517000c92274f012240874fe1223b912263ceae4
:10518000feebff8c278d28121839e970047a86808f
:105190001f1252d860047a818016ee4f70047a8014
:1051a000800e121c238a258b26ea452670067a82f9
:1051b0007b01805474121223f2e0f8c3941450045b
:1051c0008821800375211474060592f0a3eef0a3e4
:1051d000eff09009c91226637b070592126a5d12ef
:1051e0001e03740412239f85272385282478231205
:1051f0002650a921eefceffdaa25ab2612179d74bf
:105200000212239f7a007b00024cbf74f412240820
:1052100074fe1223b912263ceafeebff121839e99c
:1052200070047a86801a1252d860047a818011ee56
:105230004f70047a808009121c23ea4b70067a8230
:105240007b01802a74071252d3eef0a3eff085841d
:1052500082858583a3a3a3eef0a3eff0e584241752
:10526000f582e585127dbc1218f37a007b00026896
:105270001774f412240874fe1223b912263ceafeb5
:10528000ebff121839e970047a86801a1252d8603e
:10529000047a818011ee4f70047a808009121c23f9
:1052a000ea4b70067a827b01802674051252d3a3e2
:1052b000a3a882a983eef0a3eff08882898312630a
:1052c0009a0592a3e8f0a3e9f01218f37a007b00a4
:1052d00002681712544aa3221260420592e0227417
:1052e000f212240874fe1223b912263c8a218b2262
:1052f000ecfeedff121839e970047a868012125222
:10530000d860047a818009121c23ea4b70067a82e5
:105310007b01801d74041252d3e521f0a3e522f035
:105320000592a3a3a3eef0a3eff01218f37a007b8b
:105330000002771574f012240874fe1223b91226a5
:105340003c8a278b288c258d26121839e970047a1f
:1053500086802e1252d860047a818025741412231c
:10536000f20592e0ff74026f600974106f60047ab6
:1053700080800e121c238a238b24ea452470067a2f
:10538000827b01803474030592f08f217522000521
:1053900092782112265074141223f212546f121ea6
:1053a00069740212239f1253bc85848285858312ff
:1053b00054561218f37a007b00024cbfe584241582
:1053c000f582e585127e0beff02274f0122408744a
:1053d000fe1223b912263c8a278b288c258d261293
:1053e0001839e970047a86802e1252d860047a81c6
:1053f000802574141223f20592e0ff74026f600995
:1054000074106f60047a80800e121c238a238b2410
:10541000ea452470067a827b01802c8f2175220058
:10542000782112265074141223f212546f121e693e
:10543000740212239f1253bc740112544a12545620
:105440001218f37a007b00024cbf0592f08584822b
:10545000858583059222a3e527f0a3e528f0059230
:10546000a3a3a3e525f0a3e526f0aa23ab242212eb
:105470006391e5842405fae5853400fb2274f0127b
:10548000240874fe1223b912263c74fe12238912da
:105490006e7e8c278d2874141223f2e0fea3e0ffa9
:1054a000121839e970047a86802a1252d860047a78
:1054b00081802174181223f20592e0f522c3941121
:1054c00040047a80800e121c238a258b26ea45260a
:1054d00070067a827b018069e5842417f582e58570
:1054e000126a4ceef0a3eff074020592f0e584240a
:1054f00015f582e585126a4ce5220592f0f52375d3
:105500002400782312265074181223f212546f12ba
:105510001e69740212239f85328285338312639a37
:10552000858482858583a31263820592a3a3a3e564
:1055300027f0a3e528f0aa25ab261218f37a007b02
:1055400000024cba74f112240874fe1223b9122618
:105550003c74fc12238974021223f2126e84e5c794
:10556000f52775c70374021223f2127de185328498
:10557000853385e5820592f0a3e583f08532828547
:105580003383059212657af874021223f21256d10f
:10559000059290f79de0f525ff741dc39af5268ec0
:1055a000228e2180080522efc313ff052190f79c6e
:1055b000e0fce521c39c5044eec39526503e1256b4
:1055c000e370e8efa2e050dfa3a3a3a3a3e064028b
:1055d00070d3752302752400782312265012638637
:1055e0008e23e5842523126e8a2402fae93400fb17
:1055f000121e69740212239f0e0e80abee6013859b
:105600008482858583a3ef60047402800274031290
:1056100056bae52270030256b2853282853383532f
:1056200092fe126ed8f8741dc398fa95e0fbc3ea97
:105630009410eb9400a2d265d0334076740212230a
:10564000f21256d1af258e218006efc313ff05213c
:10565000e521c39c5042e526603e5392fe1256e37c
:1056600070ecefa2e050e3a3a3a3a3a3e064107047
:10567000d97523108e247823122650126386e58470
:105680002402fae5853400fb121e69740212239f7e
:105690007e1074ff2522600e858482858583539257
:1056a000fea374068009858482858583a37407120e
:1056b00056ba8527c774040275e8f074012ef80500
:1056c00092f0088532828533830592126edc28f0d1
:1056d0002205921269793400f5850592a3a3a3a34c
:1056e0007e002290f79612639ee52175f006a4fadb
:1056f000abf0e82afae93bfb8a828b83e02274f064
:1057000012240874fe1223b912263c74f91223895c
:10571000853282853383ecf0a3edf08a278b28e96c
:10572000fe7522001274c78a828b830592a3a3a3fd
:10573000a385822385832474026e600caa23ab2484
:10574000121e39e960027e0274191223f212639a62
:1057500074191223f212638274191223f212695a15
:1057600074100592f074026e60030257ef85238275
:10577000852483059212639ae87003742869705334
:105780007f0074191223f212695a740a0592f0e527
:10579000c7c0e074041223f2d0e00592f075c7038d
:1057a0001274c7059290f79ce0f526f582ac8285cd
:1057b00027828528831275df5003025929852782a5
:1057c000852883a3a3125ecec3ec9ae49b50258c5c
:1057d000258024740168700374286970047f018037
:1057e000a1740368700374286970047f0280937940
:1057f00000025936eaf525e814f5218012740212e8
:1058000023f2127ddee521f0a3e4f015210521e568
:1058100021c39525400302591a1263977405122378
:10582000f2126382852182a882e875f006a4faaba1
:10583000f074051223fc0592e02af582a3e03bf503
:1058400083ac82ad830592e06f70c2852282aa820a
:105850008532848533850592e02a12593b74021201
:1058600023fce5820592f0a3e583127432e0240460
:10587000f527126ed2f5236009e527652360030240
:10588000591a852723ea12743f400302591ae52763
:10589000f0eaf522e8240108e43400f97402122346
:1058a000f2059212695ae80592f0a3e912743212d5
:1058b000612a1226508c828d83a3a3a3127dd81255
:1058c00023f212746d121e69740212239f8029e55f
:1058d0002175f006a4f8a9f074051223f25392fe84
:1058e000126571f870030257fd7401687003025766
:1058f000fde86f70030257fd0521e521c3952640a1
:10590000cee526652160030257fd74021223f212d0
:105910007dde74fff0a3f002580de522600b7419d0
:105920001223f25392fe1274cd74041223f2539296
:10593000fee0f5c7a9227407024cbcf582a3e01271
:105940007e0b0592a32274f712240874fe1223b969
:1059500012263c124a4f121dfd0592e0f8740668ab
:10596000600a7408686005740968701ce4125aab18
:105970007c00124cb10592e0f91215db9006a1e013
:105980006e6005eef912183902692e74f2122408bd
:1059900074fe1223b912263c8a258b26ecffedfefd
:1059a000ec24010ce43400fd1217738a848b857497
:1059b000101223f212638dec4d701deff91219ddf8
:1059c000e9fec3941540027e147d00eefceff9aab7
:1059d00084ab851219f5801aeec3941540027e142b
:1059e0008e217522007821122650121e697402122f
:1059f000239feef9aa25ab26121779024a40853279
:105a00008285338302693774f712240874fe1223e7
:105a1000b912263c8a848b85125a4960237b08126e
:105a20006a5d121dfd125a49fae4f09006a1e0feeb
:105a3000f91215999006a1e06e6005eef912183979
:105a4000aa84ab85121c2980b5125a5b90071312e9
:105a500068ae2419f582e912625e22125a5f2212a0
:105a60005a63229006a1e075f03ba4f8a9f02274d5
:105a7000f712240874fe1223b912263c1252d8647d
:105a80000b6025e5842419f582e585125ab412606d
:105a90003e740b0592125aabf91215d59006a1e08f
:105aa0006e6005eef912183902692ef00592900623
:105ab000a1e0fe22127e0b74010592f02274f11215
:105ac000240874fe1223b912263c74fc1223897434
:105ad000021223f2126e8489228c27e975f006a443
